S02100005753323831322D4E65706978656C2D52656E657361732D52412E73726563CC
S31500000000C8440020A10F00008D0E00009D0F0000C7
S315000000109D0F00009D0F00009D0F00009D0F00002A
S315000000200000000000000000000000009D0F00001E
S315000000309D0F0000000000009D0F00009D0F0000B6
S31500000040FFFFFFFFFFFFFFFFFFFFFFFFFFFFFFFFBA
S31500000050FFFFFFFFFFFFFFFFFFFFFFFFFFFFFFFFAA
S31500000060FFFFFFFFFFFFFFFFFFFFFFFFFFFFFFFF9A
S31500000070FFFFFFFFFFFFFFFFFFFFFFFFFFFFFFFF8A
S31500000400FFFFFFFFDFCEFFFFFCFF0F00FFFF0F0028
S31500000410FCFF0F00FFFF0F00FCFF0F00FFFF0F00A8
S31500000420FCFF0F20FFFF0F20FCFF7F40FFFF7F40F8
S31500000430FCFF0D40FFFF0D40FFFFFFFFFFFFFFFF2B
S31500000440FFFFFFFFFFFFFFFFFFFFFFFFFFFFFFFFB6
S31500000450FFFFFFFFFFFFFFFFFFFFFFFFFFFFFFFFA6
S31500000460FFFFFFFFFFFFFFFFFFFFFFFFFFFFFFFF96
S31500000470FFFFFFFFFFFFFFFFFFFFFFFFFFFFFFFF86
S31500000480FFFFFFFFFFFFFFFFFFFFFFFFFFFFFFFF76
S31500000490FFFFFFFFFFFFFFFFFFFFFFFFFFFFFFFF66
S315000004A0FFFFFFFFFFFFFFFFFFFFFFFFFFFFFFFF56
S315000004B0FFFFFFFFFFFFFFFFFFFFFFFFFFFFFFFF46
S315000004C0FFFFFFFFFFFFFFFFFFFFFFFFFFFFFFFF36
S315000004D0FFFFFFFFFFFFFFFFFFFFFFFFFFFFFFFF26
S315000004E0FFFFFFFFFFFFFFFFFFFFFFFFFFFFFFFF16
S315000004F0FFFFFFFFFFFFFFFFFFFFFFFFFFFFFFFF06
S3150000050010B544F22004C2F20004237863B940F225
S315000005100003C0F200032BB141F26820C0F20000D4
S3150000052000E000BF0123237010BDC04640F2000367
S31500000530C0F2000310B54BB144F2240141F2682029
S31500000540C2F20001C0F2000000E000BF10BDC046CC
S3150000055043B210B5002B00DA72E1A8230121C4F2E0
S3150000056004031A680A431A60C046C046C046802281
S315000005701968520211431960C046C046C046C046BB
S3150000058019680A431A60C046C046C046C0464306BC
S3150000059000D4C7E0A8230124C4F204031968214348
S315000005A01960C046C046C0461A6822431A60C04653
S315000005B0C046C046C0468022196852020A431A60E5
S315000005C0C046C046C046C046830600D423E1A823E1
S315000005D00124C4F20403196821431960C046C046C9
S315000005E0C0461A6822431A60C046C046C046C04686
S315000005F08022196852020A431A60C046C046C046A5
S31500000600C046C30600D4F1E0A8230124C4F20403C3
S31500000610196821431960C046C046C0461A6822437D
S315000006201A60C046C046C046C046802219685202BB
S315000006300A431A60C046C046C046C046030700D4F7
S31500000640BFE0A8230124C4F20403196821431960FA
S31500000650C046C046C0461A6822431A60C046C04615
S31500000660C046C0468022196852020A431A60C04634
S31500000670C046C046C046430700D48DE0A8230124E7
S31500000680C4F20403196821431960C046C046C04637
S315000006901A6822431A60C046C046C046C046802239
S315000006A0196852020A431A60C046C046C046C04690
S315000006B0830700D45BE0A8230124C4F2040319686D
S315000006C021431960C046C046C0461A6822431A60D4
S315000006D0C046C046C046C0468022196852020A4338
S315000006E01A60C046C046C046C046A8230122C4F2CE
S315000006F00403196802422AD011431960C046C04655
S31500000700C04619680A431A60C046C046C046C0467D
S315000007108022196852020A431A60C046C046C04683
S31500000720C04610BDA8230121C4F204031A680A4377
S315000007301A60C046C046C04680221968520211435C
S315000007401960C046C046C046C046196836E70A4327
S315000007501A60C046C046C04680221968520211433C
S315000007601960C046C046C046C0461968D3E7A823EC
S315000007700121C4F204031A680A431A60C046C0463F
S31500000780C04680221968520211431960C046C0460D
S31500000790C046C0461968A2E7A8230121C4F2040393
S315000007A01A680A431A60C046C046C04680221968C5
S315000007B0520211431960C046C046C046C046196879
S315000007C070E7A8230121C4F204031A680A431A60D9
S315000007D0C046C046C04680221968520211431960BD
S315000007E0C046C046C046C04619683EE7A823012158
S315000007F0C4F204031A680A431A60C046C046C046DB
S3150000080080221968520211431960C046C046C0468C
S31500000810C04619680CE7A8230121C4F204031A682C
S315000008200A431A60C046C046C04680221968520272
S3150000083011431960C046C046C046C0461968DAE68C
S31500000840A8230124C4F20403196821431960C04691
S31500000850C046C0461A6822431A60C046C046C04613
S31500000860C0468022196852028BE6C046F8B544F2AB
S315000008703C07C2F20007BC46440020180024395445
S3150000088060444270837044F23C02C2F20002944615
S3150000089063001B19FE5C634458789D78C0B2F6B2BB
S315000008A0FFF756FEEDB23000FFF752FE0134280086
S315000008B0FFF74EFE102CE6D1F8BDC046F0B5474610
S315000008C0CE4680B583B06B46002640F2000800276E
S315000008D0002540F20009DC1D4B46237023780F2BC0
S315000008E014D82378D8B2102B04D8330042463900E6
S315000008F0FFF7BCFF40F2E831142000F099FA2378A4
S315000009000133DBB2237023780F2BEAD90135EDB220
S31500000910032D1BD008D8012D0DD0022D10D1002695
S3150000092040F2FF080027D7E7042D09D1FF2640F241
S31500000930FF08FF27D0E7002640F20008FF27CBE795
S31500000940002640F2000800270025C5E7FF2640F2F2
S3150000095000080027C0E7C04600B583B040B94CF296
S31500000960000390220121C4F27E03995403B000BD16
S315000009700228FBD141F2D81344F26C00C0F2000306
S315000009805B68C2F200001900019300F033F9EDE74D
S3150000099010B5FFF793FF002010BDC046002303608B
S315000009A000207047FF2010B540F600040B0A0840EF
S315000009B019010918C4F2040489000B5900209B0789
S315000009C0DB0F137010BDC0460023C4F204039C461F
S315000009D0090A490161444B68002013807047C046EC
S315000009E00020C4F2040084461800090A904300045B
S315000009F0134049010343614400208B607047C046A1
S31500000A00FF2001230840834052B91B040022C4F290
S31500000A1004029446090A4901614400208B6070472C
S31500000A204FF6FF721340F1E70020C4F2040084463B
S31500000A301800090A490110B561440C6810402043AA
S31500000A40934398430860002010BDC0460023C4F2BB
S31500000A5004039C46090A490161444B6800201B0CAB
S31500000A60138070470020C4F2040084460B0A5B0121
S31500000A7063445868FF231940FE3B8B40000C99B233
S31500000A8003405B1A59424B41002013707047C04621
S31500000A900020C4F2040084461800090A90430004AA
S31500000AA013404901034361440020CB607047C046B0
S31500000AB00B0A10B55B01012A10D00022C4F2040211
S31500000AC09446FF208022014052028A406344DC683B
S31500000AD02243120C12040020DA6010BD0020C4F27A
S31500000AE004008446FF2001408A4011004FF6FF7241
S31500000AF06344DC68114021430A40ECE7F0B5DE466A
S31500000B0057464E464546E0B583B0EFF310820123C3
S31500000B1083F3108844F2B403C2F2000301931B6806
S31500000B2033B940F60051C4F20401CB704033CB70A8
S31500000B3001990B6801330B6082F3108803889A468B
S31500000B40BBB3802340F600055B029946284B002282
S31500000B5040F2FF089C464168C4F204050AE0434699
S31500000B601E4023019B1901329B0092B25851083155
S31500000B7092451ED04B468E880868340A1842EED03D
S31500000B8043461E4023019C19A700644600977F59DF
S31500000B909B1927403C00009F01327C516746074065
S31500000BA03C00009F9B0092B27C51083158519245FF
S31500000BB0E0D1EFF31082012383F31088019B1B68B9
S31500000BC01BB101990B68013B0B60019B1B6833B994
S31500000BD040F60051C4F20401CB708033CB7082F32F
S31500000BE0108803B0F0BCBB46B246A946A046F0BD8D
S31500000BF0FFFFFEFF45F2542310B5C5F24F03036015
S31500000C000800FFF77BFF002010BDC04610B50800A6
S31500000C10FFF774FF002010BDF0B5EFF31084012339
S31500000C2083F3108844F2B403C2F20003186830B9A3
S31500000C3040F60055C4F20405E8704030E8701868C4
S31500000C400130186084F31088D00321D4FF24080AE9
S31500000C500C40010140F600000919C4F204008900A5
S31500000C600A50EFF31082012181F31088196811B13F
S31500000C701968013919601B6833B940F60051C4F28E
S31500000C800401CB708033CB7082F310880020F0BD56
S31500000C90FF2440F60005080A0C4001010819C4F2B9
S31500000CA0040580004759034E3740164047514651C8
S31500000CB0D0E7C046FFFFFEFF4EF20003262244F2B5
S31500000CC00801C4F20103985C1B6A8000C2F20001AD
S31500000CD041585B015B0F44F2C002D940C2F20002E8
S31500000CE0116070474EF2000340F2FE324B49C4F2E7
S31500000CF0010370B599524CF20002002043F6C87108
S31500000D00C4F27E02505444F2080446F60042C2F28F
S31500000D100004C0F2DC22226041F20022C0F27A0214
S31500000D20626048F2000242F20041A260226126227D
S31500000D30C0F2F401E160995C1A6A890061585201B7
S31500000D40520F44F2C005D14040F21342C2F20005F0
S31500000D50296098540921A222995440F28042995C54
S31500000D60002953D04EF20003002240F28141C4F222
S31500000D7001035A5401395A54A0329A5CCAB1362238
S31500000D809A5C1AB93C215A5CD207FCD54EF2000295
S31500000D90A021C4F20102535CDB06D80F002BFADB5C
S31500000DA050544EF20002A021C4F20102535CDB064D
S31500000DB0FCD44EF2000200213623C4F20102D154C3
S31500000DC03C31535CDB07FCD501213123D1544FF66E
S31500000DD0C473C4F27E03197000202623D054013058
S31500000DE0FF301062D05C136A800020585B015B0FF5
S31500000DF0D84040F2FE3328600948D0524CF2000336
S31500000E0043F6C872C4F27E03995470BD013140F2B4
S31500000E10C440995400F00CF8A4E7C04603A5FFFFB0
S31500000E2000A5FFFF7047C04601380028FCD1704777
S31500000E3044F2C0024CF600234143C2F2000270B5F0
S31500000E401468C3F69A330D00B3FBF4F4080040F2BD
S31500000E50E8320023002100F04BF931B9B0FBF4F081
S31500000E60800808B1FFF7E0FF70BDA000B5FBF0F009
S31500000E7040F2E8320023002100F03AF90029F0D0D0
S31500000E8001204042FFF7D0FFEEE7C046F8B546F234
S31500000E90000340F2401244F2740500240127C4F214
S31500000EA000039E5AC2F20005B6B23300E340E0B238
S31500000EB01F4202D02B6803B1984701340435102C29
S31500000EC0F3D146F2000340F23012C4F200039E5200
S31500000ED0F8BDC04646F200000023C4F2000041F20D
S31500000EE04022C0F200029A1811781A00C03292000D
S31500000EF001331150202BF2D17047C04670B5EFF385
S31500000F001081012383F3108844F2B8034000C2F233
S31500000F1000031A5A1AB11A5A013A92B21A521B5AB5
S31500000F2083B94EF2000240F2FE3541F26024C4F26B
S31500000F300102565B054BC0F20004205A334383433B
S31500000F409BB2535381F3108870BDC04600A5FFFFC6
S31500000F5070B5EFF31081012383F3108844F2B802D1
S31500000F604000C2F20002135A83B94EF2000441F265
S31500000F70602540F2FE36C4F20104C0F20005A35B10
S31500000F802D5A2B434AF200552B43A353135A0133D0
S31500000F909BB2135281F3108870BDC04600BE7047E5
S31500000FA010B500F003F8FFF7F3FCFEE740F200038C
S31500000FB04EF6005270B5CEF20002C0F2000382B0C7
S31500000FC093600020FFF7C8FCFFF78CFE6B460026F7
S31500000FD0DC1D267001202378FFF7BAFFEFF310819E
S31500000FE0012585F3108846F6FC73C4F204039A685B
S31500000FF03D4802409A609A6881F3108840F60001E5
S31500001000C4F204010A68D207D20F22700A68D20716
S31500001010D20F22700A68D207D20F2270EFF3108126
S3150000102085F3108880229868520502439A609B686F
S3150000103081F310880120FFF761FF0120FFF78CFC88
S3150000104040F60053294AC4F200039E801A8044F2F7
S31500001050C802C2F200029A6044F2C842C2F200021A
S31500001060DA6046F2000240F2201141F20000C4F2BA
S315000010700002505244F2C40244F22000C2F20002BE
S31500001080C2F200009D800021121A00F068F844F2B6
S31500001090000044F2080241F26C21C2F20000C2F2E2
S315000010A00002121AC0F2000100F050F844F20005E6
S315000010B044F20403C2F20005C2F200035B1B9E1059
S315000010C0002B05DD002408CD01349847A642FADC42
S315000010D0FFF7F2FD0220FFF73FFCFFF7FBFE0020C3
S315000010E0FFF7A0FE02B070BDFFFFFFEF00A5FFFFF8
S315000010F0F0B54FF6FF75CE46474699462B0015408C
S315000011000E0029000340140C80B50700000C59435B
S315000011104543634360435B190C0CE4188C46A542B7
S3150000112003D980235B0298464044230C61461B1872
S3150000113020044FF6FF740C40494679437243C918A0
S3150000114000198918C0BCB946B046F0BD002310B5D9
S315000011509A4200D110BDCC5CC4540133F8E70300B9
S315000011608218934200D1704719700133F9E7FFFFE7
S315000011704275696C7420776974682052656E657370
S31500001180617320416476616E63656420466C6578A0
S3150000119069626C6520536F66747761726520506171
S315000011A0636B6167652076657273696F6E20342E96
S315000011B0302E3000342E302E3000000000000004A7
S315000011C0F8B5C046F8BC08BC9E467047F8B5C046A0
S315000011D0F8BC08BC9E4670476C400020E411000035
S315000011E00C12000004000000EC11000004000000D6
S315000011F00E000000000001000801000000000100D0
S3150000120000030000040000000D090000F50B0000BB
S315000012109D0900000D0C0000190C0000650A000075
S31500001220B10A0000A5090000010A0000290A000011
S315000012304D0A0000910A0000C9090000E1090000FA
S315000012400000000000000000000000000000000098
S315000012500000000000000000000000000000000088
S3110000126001000200080010000000000061
S30D0000126C2D050000010500003C
S31501010018FFFFFFFFFFFFFFFFFFFFFFFFFFFFFFFFE0
S31101010028FFFFFFFFFFFFFFFFFFFFFFFFD0
S70500000FA14A
